{
  "contractName": "ProductManager",
  "abi": [
    {
      "anonymous": false,
      "inputs": [
        {
          "indexed": false,
          "internalType": "uint256",
          "name": "_index",
          "type": "uint256"
        },
        {
          "indexed": false,
          "internalType": "enum TypesLibrary.SupplyChainStatus",
          "name": "_status",
          "type": "uint8"
        },
        {
          "indexed": false,
          "internalType": "address",
          "name": "_address",
          "type": "address"
        }
      ],
      "name": "SupplyChainStep",
      "type": "event"
    },
    {
      "inputs": [],
      "name": "index",
      "outputs": [
        {
          "internalType": "uint256",
          "name": "",
          "type": "uint256"
        }
      ],
      "stateMutability": "view",
      "type": "function",
      "constant": true
    },
    {
      "inputs": [],
      "name": "isOwner",
      "outputs": [
        {
          "internalType": "bool",
          "name": "",
          "type": "bool"
        }
      ],
      "stateMutability": "view",
      "type": "function",
      "constant": true
    },
    {
      "inputs": [
        {
          "internalType": "uint256",
          "name": "",
          "type": "uint256"
        }
      ],
      "name": "products",
      "outputs": [
        {
          "internalType": "string",
          "name": "id",
          "type": "string"
        },
        {
          "internalType": "enum TypesLibrary.SupplyChainStatus",
          "name": "status",
          "type": "uint8"
        },
        {
          "internalType": "contract Item",
          "name": "item",
          "type": "address"
        }
      ],
      "stateMutability": "view",
      "type": "function",
      "constant": true
    },
    {
      "inputs": [
        {
          "internalType": "string",
          "name": "_id",
          "type": "string"
        },
        {
          "internalType": "uint256",
          "name": "_priceInWei",
          "type": "uint256"
        }
      ],
      "name": "create",
      "outputs": [],
      "stateMutability": "nonpayable",
      "type": "function"
    },
    {
      "inputs": [
        {
          "internalType": "uint256",
          "name": "_index",
          "type": "uint256"
        }
      ],
      "name": "buy",
      "outputs": [],
      "stateMutability": "payable",
      "type": "function",
      "payable": true
    },
    {
      "inputs": [
        {
          "internalType": "uint256",
          "name": "_index",
          "type": "uint256"
        }
      ],
      "name": "deliver",
      "outputs": [],
      "stateMutability": "nonpayable",
      "type": "function"
    }
  ],
  "bytecode": "0x608060405234801561001057600080fd5b50336000806101000a81548173ffffffffffffffffffffffffffffffffffffffff021916908373ffffffffffffffffffffffffffffffffffffffff160217905550611bef806100606000396000f3fe6080604052600436106200005c5760003560e01c80632986c0e514620000615780633bd5d173146200009157806346f81a8714620000bf5780637acc0b2014620000ed5780638f32d59b1462000133578063d96a094a1462000163575b600080fd5b3480156200006e57600080fd5b506200007962000183565b60405162000088919062000fc6565b60405180910390f35b3480156200009e57600080fd5b50620000bd6004803603810190620000b7919062000cbc565b62000189565b005b348015620000cc57600080fd5b50620000eb6004803603810190620000e5919062000c62565b620003af565b005b348015620000fa57600080fd5b5062000119600480360381019062000113919062000cbc565b620006f1565b6040516200012a9392919062000ed8565b60405180910390f35b3480156200014057600080fd5b506200014b620007d8565b6040516200015a919062000e7e565b60405180910390f35b6200018160048036038101906200017b919062000cbc565b6200082f565b005b60025481565b62000193620007d8565b620001d5576040517f08c379a0000000000000000000000000000000000000000000000000000000008152600401620001cc9062000f60565b60405180910390fd5b6001600281111562000210577f4e487b7100000000000000000000000000000000000000000000000000000000600052602160045260246000fd5b6001600083815260200190815260200160002060010160009054906101000a900460ff1660028111156200026d577f4e487b7100000000000000000000000000000000000000000000000000000000600052602160045260246000fd5b14620002b0576040517f08c379a0000000000000000000000000000000000000000000000000000000008152600401620002a79062000f1c565b60405180910390fd5b60026001600083815260200190815260200160002060010160006101000a81548160ff0219169083600281111562000311577f4e487b7100000000000000000000000000000000000000000000000000000000600052602160045260246000fd5b02179055507fc1f97306b25ff2c9632b6d5a88819f536774978f819078dff1299c9bb69bcc59816001600084815260200190815260200160002060010160009054906101000a900460ff166001600085815260200190815260200160002060010160019054906101000a900473ffffffffffffffffffffffffffffffffffffffff16604051620003a49392919062000fe3565b60405180910390a150565b620003b9620007d8565b620003fb576040517f08c379a0000000000000000000000000000000000000000000000000000000008152600401620003f29062000f60565b60405180910390fd5b6000811162000441576040517f08c379a0000000000000000000000000000000000000000000000000000000008152600401620004389062000f82565b60405180910390fd5b60003082600254604051620004569062000b04565b620004649392919062000e9b565b604051809103906000f08015801562000481573d6000803e3d6000fd5b509050826001600060025481526020019081526020016000206000019080519060200190620004b292919062000b12565b50600060016000600254815260200190815260200160002060010160006101000a81548160ff0219169083600281111562000516577f4e487b7100000000000000000000000000000000000000000000000000000000600052602160045260246000fd5b02179055508060016000600254815260200190815260200160002060010160016101000a81548173ffffffffffffffffffffffffffffffffffffffff021916908373ffffffffffffffffffffffffffffffffffffffff16021790555060026000815462000583906200120f565b919050819055507fc1f97306b25ff2c9632b6d5a88819f536774978f819078dff1299c9bb69bcc598173ffffffffffffffffffffffffffffffffffffffff16632986c0e56040518163ffffffff1660e01b815260040160206040518083038186803b158015620005f257600080fd5b505afa15801562000607573d6000803e3d6000fd5b505050506040513d601f19601f820116820180604052508101906200062d919062000ce8565b600160008473ffffffffffffffffffffffffffffffffffffffff16632986c0e56040518163ffffffff1660e01b815260040160206040518083038186803b1580156200067857600080fd5b505afa1580156200068d573d6000803e3d6000fd5b505050506040513d601f19601f82011682018060405250810190620006b3919062000ce8565b815260200190815260200160002060010160009054906101000a900460ff1683604051620006e49392919062000fe3565b60405180910390a1505050565b60016020528060005260406000206000915090508060000180546200071690620011a3565b80601f01602080910402602001604051908101604052809291908181526020018280546200074490620011a3565b8015620007955780601f10620007695761010080835404028352916020019162000795565b820191906000526020600020905b8154815290600101906020018083116200077757829003601f168201915b5050505050908060010160009054906101000a900460ff16908060010160019054906101000a900473ffffffffffffffffffffffffffffffffffffffff16905083565b60008060009054906101000a900473ffffffffffffffffffffffffffffffffffffffff1673ffffffffffffffffffffffffffffffffffffffff163373ffffffffffffffffffffffffffffffffffffffff1614905090565b346001600083815260200190815260200160002060010160019054906101000a900473ffffffffffffffffffffffffffffffffffffffff1673ffffffffffffffffffffffffffffffffffffffff16633c8da5886040518163ffffffff1660e01b815260040160206040518083038186803b158015620008ad57600080fd5b505afa158015620008c2573d6000803e3d6000fd5b505050506040513d601f19601f82011682018060405250810190620008e8919062000ce8565b146200092b576040517f08c379a0000000000000000000000000000000000000000000000000000000008152600401620009229062000fa4565b60405180910390fd5b6000600281111562000966577f4e487b7100000000000000000000000000000000000000000000000000000000600052602160045260246000fd5b6001600083815260200190815260200160002060010160009054906101000a900460ff166002811115620009c3577f4e487b7100000000000000000000000000000000000000000000000000000000600052602160045260246000fd5b1462000a06576040517f08c379a0000000000000000000000000000000000000000000000000000000008152600401620009fd9062000f3e565b60405180910390fd5b600180600083815260200190815260200160002060010160006101000a81548160ff0219169083600281111562000a66577f4e487b7100000000000000000000000000000000000000000000000000000000600052602160045260246000fd5b02179055507fc1f97306b25ff2c9632b6d5a88819f536774978f819078dff1299c9bb69bcc59816001600084815260200190815260200160002060010160009054906101000a900460ff166001600085815260200190815260200160002060010160019054906101000a900473ffffffffffffffffffffffffffffffffffffffff1660405162000af99392919062000fe3565b60405180910390a150565b61076b806200144f83390190565b82805462000b2090620011a3565b90600052602060002090601f01602090048101928262000b44576000855562000b90565b82601f1062000b5f57805160ff191683800117855562000b90565b8280016001018555821562000b90579182015b8281111562000b8f57825182559160200191906001019062000b72565b5b50905062000b9f919062000ba3565b5090565b5b8082111562000bbe57600081600090555060010162000ba4565b5090565b600062000bd962000bd38462001049565b62001020565b90508281526020810184848401111562000bf257600080fd5b62000bff8482856200115e565b509392505050565b600082601f83011262000c1957600080fd5b813562000c2b84826020860162000bc2565b91505092915050565b60008135905062000c458162001434565b92915050565b60008151905062000c5c8162001434565b92915050565b6000806040838503121562000c7657600080fd5b600083013567ffffffffffffffff81111562000c9157600080fd5b62000c9f8582860162000c07565b925050602062000cb28582860162000c34565b9150509250929050565b60006020828403121562000ccf57600080fd5b600062000cdf8482850162000c34565b91505092915050565b60006020828403121562000cfb57600080fd5b600062000d0b8482850162000c4b565b91505092915050565b62000d1f816200109b565b82525050565b62000d3081620010af565b82525050565b62000d4181620010fa565b82525050565b62000d528162001122565b82525050565b62000d63816200114a565b82525050565b600062000d76826200107f565b62000d8281856200108a565b935062000d948185602086016200116d565b62000d9f8162001319565b840191505092915050565b600062000db9601a836200108a565b915062000dc6826200132a565b602082019050919050565b600062000de06023836200108a565b915062000ded8262001353565b604082019050919050565b600062000e076013836200108a565b915062000e1482620013a2565b602082019050919050565b600062000e2e6020836200108a565b915062000e3b82620013cb565b602082019050919050565b600062000e55601a836200108a565b915062000e6282620013f4565b602082019050919050565b62000e7881620010f0565b82525050565b600060208201905062000e95600083018462000d25565b92915050565b600060608201905062000eb2600083018662000d47565b62000ec1602083018562000e6d565b62000ed0604083018462000e6d565b949350505050565b6000606082019050818103600083015262000ef4818662000d69565b905062000f05602083018562000d58565b62000f14604083018462000d36565b949350505050565b6000602082019050818103600083015262000f378162000daa565b9050919050565b6000602082019050818103600083015262000f598162000dd1565b9050919050565b6000602082019050818103600083015262000f7b8162000df8565b9050919050565b6000602082019050818103600083015262000f9d8162000e1f565b9050919050565b6000602082019050818103600083015262000fbf8162000e46565b9050919050565b600060208201905062000fdd600083018462000e6d565b92915050565b600060608201905062000ffa600083018662000e6d565b62001009602083018562000d58565b62001018604083018462000d14565b949350505050565b60006200102c6200103f565b90506200103a8282620011d9565b919050565b6000604051905090565b600067ffffffffffffffff821115620010675762001066620012ea565b5b620010728262001319565b9050602081019050919050565b600081519050919050565b600082825260208201905092915050565b6000620010a882620010d0565b9050919050565b60008115159050919050565b6000819050620010cb826200141d565b919050565b600073ffffffffffffffffffffffffffffffffffffffff82169050919050565b6000819050919050565b600062001107826200110e565b9050919050565b60006200111b82620010d0565b9050919050565b60006200112f8262001136565b9050919050565b60006200114382620010d0565b9050919050565b60006200115782620010bb565b9050919050565b82818337600083830152505050565b60005b838110156200118d57808201518184015260208101905062001170565b838111156200119d576000848401525b50505050565b60006002820490506001821680620011bc57607f821691505b60208210811415620011d357620011d2620012bb565b5b50919050565b620011e48262001319565b810181811067ffffffffffffffff82111715620012065762001205620012ea565b5b80604052505050565b60006200121c82620010f0565b91507fffffffffffffffffffffffffffffffffffffffffffffffffffffffffffffffff8214156200125257620012516200125d565b5b600182019050919050565b7f4e487b7100000000000000000000000000000000000000000000000000000000600052601160045260246000fd5b7f4e487b7100000000000000000000000000000000000000000000000000000000600052602160045260246000fd5b7f4e487b7100000000000000000000000000000000000000000000000000000000600052602260045260246000fd5b7f4e487b7100000000000000000000000000000000000000000000000000000000600052604160045260246000fd5b6000601f19601f8301169050919050565b7f50726f64756374206d7573742062652070616964206669727374000000000000600082015250565b7f50726f64756374206973206675727468657220696e20636861696e2070726f6360008201527f6573730000000000000000000000000000000000000000000000000000000000602082015250565b7f556e617574686f72697a65642061636365737300000000000000000000000000600082015250565b7f50726963652067726561746572207468616e207a65726f207265717569726564600082015250565b7f4f6e6c792066756c6c207061796d656e74207265717569726564000000000000600082015250565b600381106200143157620014306200128c565b5b50565b6200143f81620010f0565b81146200144b57600080fd5b5056fe608060405234801561001057600080fd5b5060405161076b38038061076b833981810160405281019061003291906100b3565b82600360006101000a81548173ffffffffffffffffffffffffffffffffffffffff021916908373ffffffffffffffffffffffffffffffffffffffff160217905550816000819055508060028190555050505061017e565b60008151905061009881610150565b92915050565b6000815190506100ad81610167565b92915050565b6000806000606084860312156100c857600080fd5b60006100d686828701610089565b93505060206100e78682870161009e565b92505060406100f88682870161009e565b9150509250925092565b600061010d82610126565b9050919050565b600061011f82610102565b9050919050565b600073ffffffffffffffffffffffffffffffffffffffff82169050919050565b6000819050919050565b61015981610114565b811461016457600080fd5b50565b61017081610146565b811461017b57600080fd5b50565b6105de8061018d6000396000f3fe6080604052600436106100385760003560e01c8063272aa05f146102505780632986c0e51461027b5780633c8da588146102a657610241565b36610241573460005414610081576040517f08c379a0000000000000000000000000000000000000000000000000000000008152600401610078906103c3565b60405180910390fd5b6000600154146100c6576040517f08c379a00000000000000000000000000000000000000000000000000000000081526004016100bd906103e3565b60405180910390fd5b34600160008282546100d89190610445565b925050819055506000600360009054906101000a900473ffffffffffffffffffffffffffffffffffffffff1673ffffffffffffffffffffffffffffffffffffffff163460025460405160240161012e9190610403565b6040516020818303038152906040527fd96a094a000000000000000000000000000000000000000000000000000000007bffffffffffffffffffffffffffffffffffffffffffffffffffffffff19166020820180517bffffffffffffffffffffffffffffffffffffffffffffffffffffffff83818316178352505050506040516101b8919061038c565b60006040518083038185875af1925050503d80600081146101f5576040519150601f19603f3d011682016040523d82523d6000602084013e6101fa565b606091505b505090508061023e576040517f08c379a0000000000000000000000000000000000000000000000000000000008152600401610235906103a3565b60405180910390fd5b50005b34801561024d57600080fd5b50005b34801561025c57600080fd5b506102656102d1565b6040516102729190610403565b60405180910390f35b34801561028757600080fd5b506102906102d7565b60405161029d9190610403565b60405180910390f35b3480156102b257600080fd5b506102bb6102dd565b6040516102c89190610403565b60405180910390f35b60015481565b60025481565b60005481565b60006102ee8261041e565b6102f88185610429565b93506103088185602086016104a5565b80840191505092915050565b6000610321603683610434565b915061032c82610507565b604082019050919050565b6000610344601a83610434565b915061034f82610556565b602082019050919050565b6000610367601483610434565b91506103728261057f565b602082019050919050565b6103868161049b565b82525050565b600061039882846102e3565b915081905092915050565b600060208201905081810360008301526103bc81610314565b9050919050565b600060208201905081810360008301526103dc81610337565b9050919050565b600060208201905081810360008301526103fc8161035a565b9050919050565b6000602082019050610418600083018461037d565b92915050565b600081519050919050565b600081905092915050565b600082825260208201905092915050565b60006104508261049b565b915061045b8361049b565b9250827fffffffffffffffffffffffffffffffffffffffffffffffffffffffffffffffff038211156104905761048f6104d8565b5b828201905092915050565b6000819050919050565b60005b838110156104c35780820151818401526020810190506104a8565b838111156104d2576000848401525b50505050565b7f4e487b7100000000000000000000000000000000000000000000000000000000600052601160045260246000fd5b7f4275792066726f6d20706172656e7420636f6e7472616374206661696c65642c60008201527f207472616e73616374696f6e2063616e63656c6c656400000000000000000000602082015250565b7f4974656d2066756c6c207061796d656e74207265717569726564000000000000600082015250565b7f4974656d20697320616c7265616479207061696400000000000000000000000060008201525056fea2646970667358221220092d16fdf7fe53eeb40789a5eaac35ba80543cc337f39591d0b7c316527484b264736f6c63430008010033a264697066735822122081e728d9b4f3b675447deb8defd602fce2188c77ca1102e2850b4e17d0b06c1b64736f6c63430008010033",
  "immutableReferences": {},
  "source": "// SPDX-License-Identifier: MIT\n\npragma solidity ^0.8.1;\n\nimport \"./types.sol\";\nimport \"./Ownable.sol\";\nimport \"./Item.sol\";\n\ncontract ProductManager is Ownable {\n\n  struct Product {\n    string id;\n    TypesLibrary.SupplyChainStatus status;\n    Item item;\n  }\n\n  event SupplyChainStep(uint _index, TypesLibrary.SupplyChainStatus _status, address _address);\n  mapping(uint => Product) public products;\n  uint public index;\n\n  function create(string memory _id, uint _priceInWei) public onlyOwner {\n    require(_priceInWei > 0, \"Price greater than zero required\");\n\n    Item item = new Item(this, _priceInWei, index);\n\n    products[index].id = _id;\n    products[index].status = TypesLibrary.SupplyChainStatus.CREATED;\n    products[index].item = item;\n\n    ++index;\n\n    emit SupplyChainStep(item.index(), products[item.index()].status, address(item));\n  }\n\n  function buy(uint _index) public payable {\n    require(products[_index].item.priceInWei() == msg.value, \"Only full payment required\");\n    require(products[_index].status == TypesLibrary.SupplyChainStatus.CREATED, \"Product is further in chain process\");\n\n    products[_index].status = TypesLibrary.SupplyChainStatus.PAID;\n\n    emit SupplyChainStep(_index, products[_index].status, address(products[_index].item));\n  }\n\n  function deliver(uint _index) public onlyOwner {\n    require(products[_index].status == TypesLibrary.SupplyChainStatus.PAID, \"Product must be paid first\");\n\n    products[_index].status = TypesLibrary.SupplyChainStatus.DELIVERED;\n\n    emit SupplyChainStep(_index, products[_index].status, address(products[_index].item));\n  }\n\n}\n",
  "sourcePath": "/Users/tomasz.g/Development/polygon/solidity-training/src/supply-chain/truffle-test/contracts/ProductManager.sol",
  "compiler": {
    "name": "solc",
    "version": "0.8.1+commit.df193b15.Emscripten.clang"
  },
  "schemaVersion": "3.4.3",
  "updatedAt": "2021-09-25T05:52:59.836Z",
  "networkType": "ethereum",
  "devdoc": {
    "kind": "dev",
    "methods": {},
    "version": 1
  },
  "userdoc": {
    "kind": "user",
    "methods": {},
    "version": 1
  }
}